:020000020000FC
:100000000C9434000C9434000C9434000C943400A0
:100010000C9434000C9434000C9434000C94340090
:100020000C9434000C9434000C9434000C940101B2
:100030000C9434000C9434000C9434000C94340070
:100040000C9434000C9434000C9434000C94340060
:100050000C9434000C9434000C9434000C94340050
:100060000C9434000C943400F8940FEF05B908B9DF
:100070000BB900E00AB901E004B900E00093800088
:1000800009E00093810002E000936F0000E000931C
:10009000C10000E800BF08E00EBF0FEF0DBF60E039
:1000A00050E040E0C0E0D1E020E030E090E0788037
:1000B0008FE50FEF602E00E0C02E39B000E00BB9E5
:1000C0000FEF0AB900E034FC016032FC026033FE3D
:1000D0000460502E37FE0BC008E3A02E00E4B02EC3
:1000E00004E00093890000E0009388000AC006E065
:1000F000A02E08E2B02E03E00093890008EF0093E1
:10010000880035FE03C008E107B908C008E007B958
:1001100002E00093BA0004E40093BC0000E0009306
:100120008500009384000CE106BBE0EDF8E0C9E136
:10013000D0E051922197E9F77CE052D47894803056
:10014000C1F09F3F41F09C3162F4772D0E94F7058A
:100150000E9400060EC0782F0E94F7050E9400063C
:1001600008C0782F0E94F7050E94000697330AF016
:10017000992735FE32C008B1007116B1107216957C
:100180000127E9F236FE11C003B10E73069576B170
:100190007770770F770F770F770F770F702B18B176
:1001A00000E1102718B91CD4CACF359B0BC073B11E
:1001B0007E71770F770F770F272E18B100E1102788
:1001C00018B9BDCF03B10E710695202A722D18B152
:1001D00000E1102718B904D4B2CF0091BC0007FF8A
:1001E000AECF0091B900087F003839F47091BB00A0
:1001F00004EC0093BC00F4D3A2CF04EC0093BC0049
:100200009ECF0F921F92EF93FF930F930FB70F9311
:1002100000918400043159F0053161F0063169F034
:10022000073171F0083179F0000000000000000093
:1002300000000000000000000000000000000000BE
:100240000000000000002898503079F4443008F095
:1002500001C0BAC34B1508F001C010C04B1511F412
:1002600060E010C0683C70F009C0683C58F04A1566
:1002700029F450E040E09F3F09F093956FEF20C0D4
:10028000F8621EC0062F069506950695A0EDB8E00B
:10029000A00F4C90A0E5A09F01E0100ED001E0E07F
:1002A000F62FF77047FCECCF42FCF69543FCF69531
:1002B00043FCF46041FEF06241FCF06440FEF061FA
:1002C000009184000A35E0F3009184000C3579F048
:1002D0000D3581F00E3589F00F3591F0003699F02B
:1002E0000136A1F00236A9F0000000000000000075
:1002F00000000000000000000000000000000000FE
:1003000000000000000000000000000000000000ED
:100310000000289A6F3F09F457C300E003950A32A2
:10032000E8F308B1802E077F902E40FE93C100C0F5
:10033000ED9104910BB998B888B8ED9104910BB97F
:1003400098B888B8ED9104910BB998B888B8ED9138
:1003500004910BB998B888B8ED9104910BB998B88D
:1003600088B8ED9104910BB998B888B8ED910491D3
:100370000BB998B888B8ED9104910BB998B888B8C2
:10038000ED9104910BB998B888B8ED9104910BB92F
:1003900098B888B8ED9104910BB998B888B8ED91E8
:1003A00004910BB998B888B8ED9104910BB998B83D
:1003B00088B8ED9104910BB998B888B8ED91049183
:1003C0000BB998B888B8ED9104910BB998B888B872
:1003D000ED9104910BB998B888B8ED9104910BB9DF
:1003E00098B888B8ED9104910BB998B888B8ED9198
:1003F00004910BB998B888B8ED9104910BB998B8ED
:1004000088B8ED9104910BB998B888B8ED91049132
:100410000BB998B888B8ED9104910BB998B888B821
:10042000ED9104910BB998B888B8ED9104910BB98E
:1004300098B888B8ED9104910BB998B888B8ED9147
:1004400004910BB998B888B8ED9104910BB998B89C
:1004500088B8ED9104910BB998B888B8ED910491E2
:100460000BB998B888B8ED9104910BB998B888B8D1
:10047000ED9104910BB998B888B8ED9104910BB93E
:1004800098B888B8ED9104910BB998B888B8ED91F7
:1004900004910BB998B888B8ED9104910BB998B84C
:1004A00088B8ED9104910BB998B888B8ED91049192
:1004B0000BB998B888B8ED9104910BB998B888B881
:1004C000ED9104910BB998B888B8ED9104910BB9EE
:1004D00098B888B8ED9104910BB998B888B8ED91A7
:1004E00004910BB998B888B8ED9104910BB998B8FC
:1004F00088B8ED9104910BB998B888B8ED91049142
:100500000BB998B888B8ED9104910BB998B888B830
:10051000ED9104910BB998B888B8ED9104910BB99D
:1005200098B888B8ED9104910BB998B888B8ED9156
:1005300004910BB998B888B8ED9104910BB998B8AB
:1005400088B8ED9104910BB998B888B8ED910491F1
:100550000BB998B888B8ED9104910BB998B888B8E0
:10056000ED9104910BB998B888B8ED9104910BB94D
:1005700098B888B8ED9104910BB998B888B8ED9106
:1005800004910BB998B888B8ED9104910BB998B85B
:1005900088B8ED9104910BB998B888B8ED910491A1
:1005A0000BB998B888B8ED9104910BB998B888B890
:1005B000ED9104910BB998B888B8ED9104910BB9FD
:1005C00098B888B8ED9104910BB998B888B8ED91B6
:1005D00004910BB998B888B8ED9104910BB998B80B
:1005E00088B8ED9104910BB998B888B8ED91049151
:1005F0000BB998B888B8ED9104910BB998B888B840
:10060000ED9104910BB998B888B8ED9104910BB9AC
:1006100098B888B8ED9104910BB998B888B8ED9165
:1006200004910BB998B888B8ED9104910BB998B8BA
:1006300088B8ED9104910BB998B888B8ED91049100
:100640000BB998B888B8ED9104910BB998B888B8EF
:100650000C94E3040000ED9104910BB998B888B8AC
:10066000F8600491F77F0BB998B888B8ED910491C0
:100670000BB998B888B8F8600491F77F0BB998B8AF
:1006800088B8ED9104910BB998B888B8F8600491D6
:10069000F77F0BB998B888B8ED9104910BB998B869
:1006A00088B8F8600491F77F0BB998B888B8ED91D5
:1006B00004910BB998B888B8F8600491F77F0BB92A
:1006C00098B888B8ED9104910BB998B888B8F860DB
:1006D0000491F77F0BB998B888B8ED9104910BB9E4
:1006E00098B888B8F8600491F77F0BB998B888B8C3
:1006F000ED9104910BB998B888B8F8600491F77F30
:100700000BB998B888B8ED9104910BB998B888B82E
:10071000F8600491F77F0BB998B888B8ED9104910F
:100720000BB998B888B8F8600491F77F0BB998B8FE
:1007300088B8ED9104910BB998B888B8F860049125
:10074000F77F0BB998B888B8ED9104910BB998B8B8
:1007500088B8F8600491F77F0BB998B888B8ED9124
:1007600004910BB998B888B8F8600491F77F0BB979
:1007700098B888B8ED9104910BB998B888B8F8602A
:100780000491F77F0BB998B888B8ED9104910BB933
:1007900098B888B8F8600491F77F0BB998B888B812
:1007A000ED9104910BB998B888B8F8600491F77F7F
:1007B0000BB998B888B8ED9104910BB998B888B87E
:1007C000F8600491F77F0BB998B888B8ED9104915F
:1007D0000BB998B888B8F8600491F77F0BB998B84E
:1007E00088B8ED9104910BB998B888B8F860049175
:1007F000F77F0BB998B888B8ED9104910BB998B808
:1008000088B8F8600491F77F0BB998B888B8ED9173
:1008100004910BB998B888B8F8600491F77F0BB9C8
:1008200098B888B8ED9104910BB998B888B8F86079
:100830000491F77F0BB998B888B8ED9104910BB982
:1008400098B888B8F8600491F77F0BB998B888B861
:10085000ED9104910BB998B888B8F8600491F77FCE
:100860000BB998B888B8ED9104910BB998B888B8CD
:10087000F8600491F77F0BB998B888B8ED910491AE
:100880000BB998B888B8F8600491F77F0BB998B89D
:1008900088B8ED9104910BB998B888B8F8600491C4
:1008A000F77F0BB998B888B8ED9104910BB998B857
:1008B00088B8F8600491F77F0BB998B888B8ED91C3
:1008C00004910BB998B888B8F8600491F77F0BB918
:1008D00098B888B8ED9104910BB998B888B8F860C9
:1008E0000491F77F0BB998B888B8ED9104910BB9D2
:1008F00098B888B8F8600491F77F0BB998B888B8B1
:10090000ED9104910BB998B888B8F8600491F77F1D
:100910000BB998B888B8ED9104910BB998B888B81C
:10092000F8600491F77F0BB998B888B8ED910491FD
:100930000BB998B888B8F8600491F77F0BB998B8EC
:1009400088B8ED9104910BB998B888B8F860049113
:10095000F77F0BB998B888B8ED9104910BB998B8A6
:1009600088B8F8600491F77F0BB998B888B8ED9112
:1009700004910BB998B888B8F8600491F77F0BB967
:1009800098B888B8ED9104910BB998B888B8F86018
:100990000491F77F0BB998B888B8ED9104910BB921
:1009A00098B888B8F8600491F77F0BB998B888B800
:1009B000ED9104910BB998B888B8F8600491F77F6D
:1009C0000BB998B888B86395439509F453950F917E
:1009D0000FBF0F91FF91EF911F900F9018951895F1
:1009E00006D1D72E772D0CD17D2D0C2D003051F452
:1009F000072F0F3709F44CC1003208F0F5C0F8E0BA
:100A0000E72F09940C2D0E3041F4703508F02CC0FE
:100A1000272F56D1ECD0788027C00F3049F4793198
:100A200008F022C0372FCBD0A3D0E1D078801CC0F3
:100A30000A3111F4D9D018C0083121F4572E98D0BA
:100A40003FD112C0023011F4872F0EC0053029F4B7
:100A5000062D0F3F79F4672E0895063029F4062DF0
:100A60000F3F29F4672E089500E0C02E089500E09E
:100A7000D02E02C001E0D02E072F0436A8F7062D95
:100A8000003A90F73F932F93072F069506950F7125
:100A9000302FF8E0E0EDE30F008107FD0BC020E010
:100AA000A6D000E0099323952035E1F700E0006827
:100AB00001600083062D06950F77202F062D01700B
:100AC000102F072F0370000F102B01E0103019F0CA
:100AD000000F1A95E9F78BD01881D0FC102BD0FEAF
:100AE000FFEFD0FE0F27D0FE102318832F913F91E8
:100AF0000FEF602EB9CF70E283D08DD0122F177018
:100B0000D1F7089570E2EC2EFD2ED22E79D02196E9
:100B100023952035D9F72D2DDF2DCE2D7880089502
:100B200070E2EC2EFD2ED22E62D06AD021972A954B
:100B30002030D9F72D2DDF2DCE2D7880089570E24D
:100B4000EC2EFD2E5DD02197D130E1F7C030D1F7EA
:100B5000DF2DCE2D7880089570E2EC2EFD2E799356
:100B6000D830E9F7C03DD9F7DF2DCE2D7880089534
:100B7000F8E0E0EDE30F00E057FC18C050FC016026
:100B800051FC026052FC02C000830895D02E38311F
:100B900039F4BED03A952BD0F8E0E0EDE30F0D2DFF
:100BA000046001930B7F0860008308950068016072
:100BB00000830895F8E0E0EDE30F00810895F8E088
:100BC000E0EDE30F008110E007FD0AC000FD1160B9
:100BD00001FD126002FD146003FD1460512E0895A2
:100BE00010681160512E08950BD015D00895C0E5FE
:100BF000D1E0C39F10E01D0EE001C20FD11F089588
:100C0000788352FE0895383129F0A096E0967883D3
:100C1000A097E09708952196239550FE03C02035B4
:100C2000A9F402C0283291F420E052FC07C03395A9
:100C3000393160F03A9520E06BD008C03395339598
:100C4000383120F03A953A9520E07ED091DFCFDF21
:100C50007880089520E0CBDF7880089552FC0CC0A6
:100C600000C0383120F054D083DF78800895339568
:100C7000BEDF7EDF78800895363120F065D078DFE2
:100C80007880089533953395B2DF72DF78800895C8
:100C900070E2B6DF772E0895203061F4303009F429
:100CA00008953A950E94DA0503FD3A9588DF2FE40E
:100CB00007D001C02A9570E29ADFA2DF772E08954F
:100CC00050FC0895283220F027E291DF99DF772E3B
:100CD0000895E9E1C0EDD8E0052D0993EA95E9F71B
:100CE00030E046DFE0E0F1E0C0EDD7E070E2719384
:100CF0002197E9F720E030E07ADF788060DF08951F
:100D000052FC22D052FE04D05ADFDADF78800895F8
:100D1000EC2EFD2EC0E0D1E0E0E5F1E07191799399
:100D2000E03DE1F7F830D1F770E27993C03DE9F7A3
:100D3000E8E1C1EDD8E00881219708832296EA9581
:100D4000D1F7DF2DCE2D0895EC2EFD2EC0E0D1E0A1
:100D5000E0EAF1E071917993E03DE1F7F830D1F705
:100D600070E27993C03DE9F7E7E1C2EDD8E0088190
:100D7000229708832396EA95D1F7DF2DCE2D08958B
:100D800052FC23D052FE04D01ADF9ADF78800895F7
:100D9000EC2EFD2EC0E8D8E0E0EDF8E07A917293F9
:100DA000C030E1F7D130D1F770E27293E030E9F76B
:100DB000F130D9F7E8E1C7EED8E00991088322972E
:100DC000EA95D9F7DF2DCE2D0895EC2EFD2EC0E348
:100DD000D8E0E0EDF8E07A917293C030E1F7D130DD
:100DE000D1F770E27293E030E9F7F130D9F7E7E13B
:100DF000C6EED8E00881229608832397EA95D1F7BA
:100E0000DF2DCE2D0895EC2EFD2EC0E0D1E0E1E0E7
:100E1000F1E071917993E03DE1F7F830D1F770E2BC
:100E20007883E097A097CF3FD9F7D030C9F7DF2D6F
:100E3000CE2D78800895EC2EFD2ECFECD8E0E0ED9D
:100E4000F8E07A917293C030E1F7D130D1F770E2D7
:100E50007883E096A096C03DD9F7D830C9F7DF2D4A
:100E6000CE2D7880089590E008959FEF089530305A
:100E7000C1F13A95A4DE9EDE03FDF9CFB8DE78809D
:100E80000895383171F133959ADE94DE03FDF9CF80
:100E9000AEDE78800895203021F12A95A8DE788092
:100EA00008950E94DF0550FC2F3450FE2732C9F010
:100EB00023959DDE78800895E8E1C0EDD8E00881B3
:100EC00003FD02C0077F0883C8EE088102FD02C04F
:100ED0000B7F088374DEF4DE8ADE78800895C72EE7
:040EE00008950895D4
:1010000070CF78CE6CCF2FCF30CF69CF68CF69CF7C
:1010100043CE71CD23CE65CF5CCE1CCE60CF5FCFEB
:101020007FCD70CD8CCD98CD6BCEAACEECCE03CF3C
:1010300056CF57CF54CF55CF34CF2DCF18CF21CF48
:10200000007E7E6C10381000FF00FF0F3C3F3F1831
:10201000800218247F3E001810100000000000000D
:1020200000102424180030101020000000000000D0
:102030003C103C3C087E1C7E3C3C00000800103CF0
:102040003C187C1C787E7E1C42380E6270636218DD
:102050007C3C7C3C7F42414141417F78807810004C
:102060001000600006000C006010026030000000EC
:1020700000000000100000000000000C10303200D2
:102080003C000C3C423010003C4230247C30421872
:102090000C001F1800201820004242081844F81CA9
:1020A0000C0C040032343C381000004242000000A6
:1020B0002255DB101010140000141400141410002A
:1020C000101000100010101414001400140014104C
:1020D0001400001410000014101000FF00F00FFF97
:1020E000000000007E0000007C18181C00020C3C60
:1020F000001010080C1018003000000F783000009D
:102100000081FFFE387C1000FF3CC303422121DB2D
:10211000E00E3C249263003C38101830002410FE7E
:10212000003824243E6248102010441000000002B1
:1021300042304242184020424242101010000842F1
:1021400042242222242222224210042420555224F6
:102150002242224249424141222242404008280074
:1021600010002000020012002000002010000000DB
:1021700000000000100000000000001010084C08D3
:102180004244004200000000420000008200181893
:1021900000002424421024104218000824284C1265
:1021A000000008044C4C4444000000C4C410124811
:1021B00088AA7710101014000014140014141000D2
:1021C000101000100010101414001400140014104B
:1021D0001400001410000014101000FF00F00FFF96
:1021E000003C7E3F4200443310242420620410420D
:1021F0007E100810121018324800000844480000F1
:1022000000A5DBFE7C383818E7669905423F3F3C65
:10221000F83E7E249238007E7C100C60406638FECA
:102220000038247E4064302040083810000000044C
:1022300046500202287C400442421010207E0402D4
:102240005E422240222828404210042820494A4267
:102250002242224008424141141404402008440014
:10226000083C203C023C103D2C30062410765C3C9F
:102270006C366C3E7C42414144427C101008001494
:1022800040003C383838383C3C3C3C18301824007E
:102290007C334400000000000024423E207C781083
:1022A0003818000800004444100000484A00242464
:1022B0002255DB1010F01400F0F414FCF414F000BC
:1022C0001010001000101F14171FF7FF17FFF7FF63
:1022D00014FF00141F1F0014FF1000FF00F00FFF79
:1022E00031424254203E444C38424218953C2042F0
:1022F000007C04201210004C4800000844103C00F0
:102300000081FFFEFEFE7C3CC342BD7D422021E7F2
:10231000FEFE1824724400185454FEFE40FF7C7CDC
:10232000001000243C0856004008FE7C007E000897
:102330004A100C1C48027C083C3E0000400002048D
:1023400052423C40223838407E1004302041464200
:102350003C423C3C084241490808084010088200C1
:1023600000022E423A42384232100228104962429C
:10237000324C324010424149284208600006002297
:102380004244420404040440424242081008423CD1
:10239000200C7F3C3C3C4242424242407010447C14
:1023A00004083C427C623E38207E7EF6F6104812DD
:1023B00088AAEE1010101400100414040414100065
:1023C0001010001000101014101000001000000079
:1023D0001400001410100014101000FF00F00FFF84
:1023E0004A7C401418484408447E423C894A3C4296
:1023F0007E10081010107E003018000844203C00A9
:1024000000BDC37C7CFEFE3CC342BD843C2023E770
:10241000F83E182412447E7E107C0C604066FE3824
:102420000010007E021088004008381000000010E4
:1024300052103002FE024210420200002000040846
:102440005E7E22402228284E4210442820414242EB
:10245000204A2802084222491408104008080000B7
:10246000003E3140467E1042221002301049424266
:10247000324C223C104222491042101010080041F8
:102480003C447E3C3C3C3C407E7E7E0810087E42C4
:10249000383F44424242424242424240207C4F1036
:1024A0003C08424242520000404002292A102424A3
:1024B0002255DB10F0F0F4FCF0F414F4FCFCF0F026
:1024C0001FFFFF1FFFFF1F171F17FFF717FFF7FF64
:1024D000FFFFFF1F1F1F1FFFFFF01FFFFFF00F0079
:1024E0004442401420487A084442244295522042F3
:1024F00000101008101000320018180844783C0032
:102500000099E73838D67C18E76699841860673CEC
:10251000E00E7E0012387E3C103818307E24FE100B
:10252000000000247C268800201044101000102099
:10253000621042420842421042041010107E08000D
:1025400040422222242220224210442422414224BA
:10255000203C24420842144922082140040800007B
:10256000004231424640103E221042281049424269
:102570002C34200212461449283E20101008004135
:102580000C4440444444443C404040081008427ECF
:1025900020444442424242423E24423E42104410C1
:1025A00044084242424A7E7C424002435F10124845
:1025B00088AA7710101014141014141400000010BE
:1025C0000000101000101014001400141400140067
:1025D0000010140000101414100010FFFFF00F0082
:1025E0004A7C40144248400838242442623C10424D
:1025F0007E0000001090184C000000C800003C0055
:102600000081FF1010101000FF3CC3847EE0E6DB69
:1026100080023C2412CC7E18101000000000000044
:102620000010002418467600102000001000104012
:102630003C7C7E3C1C3C3C103C38101008001008D0
:102640003C427C1C787E701E423838637E414218C2
:102650007003723C1C3C0836411C7F7802780000F5
:10266000003F2E3C3B3C3802623842263849423C0F
:102670002004707C0C3A083644027C0C1030007F39
:10268000023E3C3E3E3E3E063C3C3C1C381C424228
:102690007C3B473C3C3C3C3C02183C087C10459051
:1026A0003E1C3C3C424600003C00008C8210000076
:1026B0002255DB1010101414101414140000001014
:1026C0000000101000101014001400141400140066
:1026D0000010140000101414100010FFFFF00F0081
:1026E000314040147E3040081018663C00400C42D7
:1026F000007C7E7E10901800000000280000000082
:10270000007E7E0000383800FF00FF7818C0C01837
:1027100000001800007800FF00000000000000002A
:102720000000000000000000000000002000000089
:102730000000000000000000000000200000000079
:102740000000000000000000000000000000000089
:10275000000000000000000000000000000000FF7A
:10276000000000000000007C00003C0000000000B1
:10277000700E000000000000007C0000000000005F
:102780003C0000000000001C0000000000000000F1
:1027900000000000000000003C0000080000E660AF
:1027A00000000000000000000000001F0200000008
:1027B00088AAEE1010101414101414140000001045
:1027C0000000101000101014001400141400140065
:1027D0000010140000101414100010FFFFF00F0080
:1027E00000400000000080007C000000008000002D
:1027F0000000000010600000000000180000000051
:10300000003F3F3C030F0300FF00FF000F0F0F03C3
:10301000C000030C3F0F000303030000000000008A
:1030200000030C0C03000F03030C00000000000061
:103030000F030F0F003F033F0F0F00000000030FAF
:103040000F033F033F3F3F03300F003C3F3C3C0337
:103050003F0F3F0F3F30303030303F3FC03F030025
:1030600003003C00000000003C03003C0F00000097
:10307000000000000300000000000000030F0F002C
:103080000F00000F300F03000F300F0C3F0F300305
:1030900000000303000C030C003030000330FF037A
:1030A000000000000F0F0F0F030000303000000081
:1030B0000C33F303030303000003030003030300C3
:1030C00003030003000303030300030003000303DF
:1030D0000300000303000003030300FF00FF00FFE1
:1030E000000000003F0000003F0303030000000F4A
:1030F00000030300000303000F0000003F0F000067
:1031000000C0FFFF0F3F0300FF0FF000300C0CF377
:10311000FC000F0CC33C000F0F03030F000C03FF58
:10312000000F0C0C0F3C30030C03300300000000B8
:10313000300F303003300C303030030303000030E8
:10314000300C0C0C0C0C0C0C3003000C0C33330C3E
:103150000C300C30303030300C0C303030000C0083
:1031600003000C00000003000C00000C0300000032
:103170000000000003000000000000030300300016
:10318000303000300000000030000000C0000303B9
:1031900000000C0C30030C03300300000C0C300357
:1031A0000000000030303030000000F0F003033049
:1031B000C0CC3F0303030300000303000303030029
:1031C00003030003000303030300030003000303DE
:1031D0000300000303000003030300FF00FF00FFE0
:1031E000000F3F0F3000300F030C0C0C3C0003307D
:1031F0003F0300030303030F3000000030300000E2
:1032000000CCF3FF3F0F0F03FC3CC300300F0F0F48
:10321000FF0F3F0CC30F003F3F03003C303C0FFF4C
:10322000000F0C3F303C0F0C30000F03000000007B
:10323000303300000C3F3000303003030C3F0000FF
:1032400033300C300C0C0C303003000C0C303030B0
:103250000C300C3000303030030300300C003000F4
:10326000000F0C0F000F030F0C0F000C033F330F68
:103270003C0F3C0F3F30303030303F030300000341
:1032800030000F0F0F0F0F0F0F0F0F030F030C0066
:103290003F0F300000000000000C300F0C3F3F03D8
:1032A0000F030000000030300300003030000C0C31
:1032B0000C33F30303FF0300FFFF03FFFF03FF00D3
:1032C00003030003000303030303FFFF03FFFFFFE8
:1032D00003FF000303030003FF0300FF00FF00FFE1
:1032E0000F3030330C0F30300F303003C30F0C3041
:1032F000003F000C030300303000000030030F00DB
:1033000000C0FFFFFFFF3F0FF030CF3F300C0CFC41
:10331000FFFF030C3F3000033333FFFF30FF3F3F1D
:103320000003000C0F0033003000FF3F003F00009F
:103330003003000330003F000F0F0000300000009A
:1033400033300F300C0F0F303F03000F0C30303094
:103350000F300F0F00303030000000300300C0008D
:1033600000000C300F300F300F03000C03303C30E6
:103370000F300F30033030300C30003C0000000CB8
:103380003030300000000030303030000300300FAB
:103390000C003F0F0F0F3030303030303F03303FE4
:1033A00000000F303F3C0F0F0C3F3FFFFF03300387
:1033B000C0CCFC030303030003000300000303006D
:1033C00003030003000303030303000003000000E2
:1033D0000300000303030003030300FF00FF00FFDB
:1033E000303F300303303000303F300FC0300F30FB
:1033F0003F03000303033F000F030000300C0F00E6
:1034000000CFF03F3FFFFF0FF030CFC00F0C0CFCA0
:10341000FF0F030C03303F3F033F003C303CFF0FE6
:103420000003003F0003C00030000F030000000352
:1034300033030F00FF003003300000000C000000D9
:10344000333F0C300C0C0C303003300C0C3030306F
:103450000C300C0000300C30030003300000000082
:10346000000F0F30303F03300C03000F03303030BB
:103470000F300C0F03300C30033003030300003017
:103480000F303F0F0F0F0F303F3F3F0003003F3023
:103490000F0F303030303030303030300C3F3003B0
:1034A0000F003030303300003030000C0C030C0CB7
:1034B0000C33F303FFFFFFFFFFFF03FFFFFFFFFFDF
:1034C00003FFFF03FFFF03030303FFFF03FFFFFFF0
:1034D000FFFFFF03030303FFFFFF03FFFFFF0000E6
:1034E000303030030C303F0030300C30C3330C3000
:1034F000000303000303000F00030300303F0F002D
:1035000000C3FC0F0FF33F03FC3CC3C0033C3C0F64
:10351000FC003F00030F3F0F030F030F3F0CFF039F
:103520000000000C3F0CC0000C0330030300030C30
:103530003C0330300030300330000303033F000011
:1035400030300C0C0C0C0C0C3003300C0C30300CEC
:103550000C0F0C30003003300C000C300000000069
:1035600000300F303030030F0C03300C033030309C
:103570000C0F0C00033003300C0F0C030300003061
:10358000003030303030300F303030000300303F0A
:103590000C303030303030300F0C300F300330030F
:1035A0003000303030303F3F3030003033030330B4
:1035B000C0CC3F0303030303030303030000000322
:1035C00000000303000303030003000303000300E0
:1035D0000003030000030303030003FFFFFF0000D9
:1035E000303F3003303030000F0C0C303C0F0330D4
:1035F0003F00000003C30330000000F000000F0094
:1036000000C0FF0303030300FF0FF0C03FFCFCF307
:10361000C0000F0C03F03F03030300000000000094
:103620000003000C03303F00030C000003000330D4
:103630000F3F3F0F030F0F030F0F030300000300A3
:103640000F303F033F3F3F03300F0F3C3F3030030D
:103650003F003F0F030F000F30033F3F003F0000CC
:10366000000F0C0F0F0F0F003C0F300C0F30300FFE
:103670000C003F3F000F000F30003F00030F003FE2
:10368000000F0F0F0F0F0F000F0F0F030F0330303E
:103690003F0F300F0F0F0F0F00030F003F0330C31A
:1036A0000F030F0F303000000F0000C0C0030000F8
:1036B0000C33F303030303030303030300000003BA
:1036C00000000303000303030003000303000300DF
:1036D0000003030000030303030003FFFFFF0000D8
:1036E0000F3030033F0F300003033C0F0030003039
:1036F000003F3F3F03C303000000000C0000000038
:10370000003F3F00000F0F00FF00FF3F03F0F003FA
:1037100000000300003F00FF000000000000000068
:103720000000000000000000000000000C0000008D
:1037300000000000000000000000000C000000007D
:103740000000000000000000000000000000000079
:10375000000000000000000000000000000000FF6A
:10376000000000000000003F00000F00000000000B
:103770003F00000000000000003F000000000000CB
:103780000F00000000000003000000000000000027
:1037900000000000000000000F0000000000FC3CE2
:1037A0000000000000000000000000030000000016
:1037B000C0CCFC0303030303030303030000000363
:1037C00000000303000303030003000303000300DE
:1037D0000003030000030303030003FFFFFF0000D7
:1037E000003000000000C0003F00000000C00000EA
:1037F00000000000033C0000000000030000000087
:1038000000FCFCF000C00000FF00FFFFF0FFFFC065
:10381000000CC030FFFC00C00000000000000000F1
:1038200000003030C0000000000000000000000078
:10383000F000F0F0C0FCF0FCF0F00000C00000F080
:10384000F0C0F0F0C0FCFCF00CC0FC0C000F0CC091
:10385000F0F0F0F0FF0C03030303FFC000C0000012
:10386000000000003C00F00000000C000000000020
:103870000000000000000000000000F000000C004C
:10388000F000F0F00C000000F00C0030F0000CC074
:10389000F000FFC00000C000000C0CC0C030C0F041
:1038A000F0F030000C30F0C00000000C0C00000004
:1038B0000C33CF000000300000303000303000000A
:1038C0000000000000000030300030003000300008
:1038D0003000003000000030000000FF0000FFFF5B
:1038E00000000000FC000000F0C0C0F0000CF0F090
:1038F000000000C0F000C000000000FFC000000099
:103900000003FFFCC0F00000FFF00F0F0C0303CF1B
:1039100000FCF0300C0F00F0C000C000003000FCD4
:1039200000C03030FC0CC000000030000000000C73
:103930000C000C0CC000000C0C0C00000000C00CB3
:103940000C300C0C300C0C0C0C00303000330C30F4
:103950000C0C0C0CC30C03030C0C0C0000C0C000BE
:10396000000000000C000C0000000000000000003F
:1039700000000000000000000000000000C0F0C0D7
:103980000C30000C000000000C0000000C00C0C057
:10399000000030300C0030000CC000C030C0F00C13
:1039A0000000C030F0F030300000003030000CC0BB
:1039B000C0CC3F000000300000303000303000004C
:1039C0000000000000000030300030003000300007
:1039D0003000003000000030000000FF0000FFFF5A
:1039E00000F0FCFF0C00300F003030000C30000CF9
:1039F000FC00C0000C00C00CC00000C030C00000C3
:103A00000033CFFCF0C0C0C03F3CC3330CFFFFF01D
:103A1000C0FCFC300CC000FCF000F000003CC0FC1E
:103A200000C030FC0030000000C0C00000000030CA
:103A30003C000C0CC0F000300C0C000000FC300C02
:103A4000FC0C0C000CC0C0000C0030C000C3CC0C3F
:103A50000C0C0C00C00C03033030300000C03000F0
:103A6000C0F000F00CF000F3F0003C30003CF0F04F
:103A7000F03CF0FCF00C0303300CF00000C0003010
:103A80000000F0C0C0C0C0F0F0F0F0C000C03000D6
:103A9000F00F30000000000000300CFC00F0C0000F
:103AA000C0C000C000003030000000C0CC0030308A
:103AB0000C33CF0000003000003030F03030000018
:103AC000000000000000FF303FFF3FFF3FFF3FFFCF
:103AD00030FF0030FFFF0030FF0000FF0000FFFF5D
:103AE000030C0C3000FC30F0C00C0CC033F0000CA8
:103AF00000F030000C0000F0C00000C03000F0000A
:103B00000003FFFCFCFCF0F00F0CF3F30C00033F90
:103B1000FCFCC0300C3000C03030FCFC00FFF0F08A
:103B200000000030F0C03C0000C0FCF000FC00C011
:103B3000CC00F0F0C00CF0C0F0FC000000000C3035
:103B40000C0CF0000CC0C000FC00300000033C0C6A
:103B5000F00CF0F0C00C03C3C0C0C00000C00C00EB
:103B6000000CFC0CCC0CC00C0C000CC000C30C0CEA
:103B70000CF00C00000C03C3C00CC000003C000C97
:103B80000C300C30303030000C0C0CC000C00CF08D
:103B900000F0FFF0F0F00C0C0C0C0C00000030F00A
:103BA00030C0F00CF00CFCC000FCFC3C3C00C00C35
:103BB000C0CCFC000000300000303030303000005D
:103BC00000000000000000300000000000000000C5
:103BD0003000003000000030000000FF0000FFFF58
:103BE000CCF00030C0C030C030FC0CF0C3CCF00CC6
:103BF000FC00C0000000FC0000C000C03000F0006D
:103C000000F30FF0F0FCFCF00F0CF330F0000F3F6E
:103C1000C0FCC0300C30FCFC00F0F000003CFCC0EC
:103C2000000000FC0C00C00000C0C000000000004C
:103C30000C00000CFC0C0C000C0C0000000030C050
:103C4000FCFC0C000CC0C0FC0C0030C000030C0CD1
:103C500000CCC00CC00C0CC330C00000C0C00000C1
:103C600000FC03003CFC000C0C000C0000C30C0C1E
:103C70000CF00CF0000C0CC3000C000000C00003A2
:103C8000F030FCF0F0F0F000FCFCFCC000C0FC0CDC
:103C9000C0FF300C0C0C0C0C0C0C0C0000F0FF00E6
:103CA000F0C00C0C0C0C000000000CC3CC00303039
:103CB0000C33CF00000030F000303030F0F0000066
:103CC000FFFFFFFFFFFFFF3FFF3FFF3F3FFF3FFFC4
:103CD000FFFFFFFFFFFFFFFFFF00FFFFFF00FF00F1
:103CE000300C003000C0CCC0300C300C330C000C59
:103CF000000000C00000000C00C0C0C030C0F000D8
:103D000000C33FC0C03CF0C03F3CC330C0003FF0E8
:103D100000FCFC000CC0FCF000C0C000FC30FC004B
:103D200000000030F03CC000000030000000000047
:103D30000C000C0CC00C0C000C30000000FCC0008F
:103D4000000C0C0C300C000C0C0030300C030C3050
:103D500000F0300CC00C30C30CC0030030C00000B9
:103D6000000C030C3C0000FC0C000CC000C30C0C4D
:103D7000F030000C0C3C30C3C0FC000000C000035D
:103D8000F0300030303030F0000000C000C00CFCDB
:103D90000030300C0C0C0C0CFC300CFC0C00300017
:103DA00030C00C0C0CCCFCF00C000C0FFF000CC055
:103DB000C0CC3F0000003030003030300000000048
:103DC0000000000000000030003000303000300003
:103DD0000000300000003030000000FFFF00FF0056
:103DE000CCF000300CC000C0C030300C0CF0000C27
:103DF000FC0000000000C0F0000000C00000F00067
:103E00000003FF0000000000FFF00F30FC003CCF7B
:103E1000000CF0300CF0FCC00000000000000000BE
:103E200000000030C03C3C0000000000000000002A
:103E3000F0F0FCF0F0F0F000F0C00000C00000C0B6
:103E4000F00CF0F0C0FC00FC0CC0C00FFC030CC078
:103E5000000F0CF0F0F0C03C03F0FFC00CC00000FD
:103E600000FFFCF0CFF0C00C0CC00C3CC0C30CF049
:103E7000003000F0F0CCC03C300CF0F0000000FF4F
:103E80000CFCF0FCFCFCFC3CF0F0F0F0C0F00C0C86
:103E9000F0CF3FF0F0F0F0F00CC0F0C0F0003300D5
:103EA000FCF0F0F00C3C0000F00000F00C00000012
:103EB0000C33CF0000003030003030300000000004
:103EC0000000000000000030003000303000300002
:103ED0000000300000003030000000FFFF00FF0055
:103EE00003000030FC0000C000C03CF00000F00CFB
:103EF00000F0FCFC0000C000000000C0000000005A
:103F000000FCFC0000C0C000FF00FFC0C00000C0FB
:103F10000000C00000C000FF000000000000000022
:103F20000000000000000000000000000000000091
:103F30000000000000000000000000000000000081
:103F40000000000000000000000000000000000071
:103F5000000000000000000000000000000000FF62
:103F600000000000000000F00000F0000000000071
:103F700000FC00000000000000F000000000000055
:103F8000F0000000000000F0000000000000000051
:103F90000000000000000000F00000C000003C0035
:103FA0000000000000000000000000FF0C00000006
:103FB000C0CCFC0000003030003030300000000089
:103FC0000000000000000030003000303000300001
:103FD0000000300000003030000000FFFF00FF0054
:103FE0000000000000000000F000000000000000E1
:103FF0000000000000000000000000C00000000001
:10400000007E7E6C10381000FF00FF0F3C3F7F18D1
:10401000800218667F3E001818180000000000009B
:1040200000306C6C30003860186000000000000642
:104030007C3078781CFC38FC7878000018006078B8
:104040007C30FC3CF8FEFE3CCC781EE6F0C6C63860
:10405000FC78FC78FCCCCCC6C6CCFE78C0781000CE
:104060003000E0001C003800E0300CE07000000080
:1040700000000000100000000000001C18E07600A6
:1040800078001C7ECCE030007ECCE0CC7CE0C630FA
:104090001C003E780000780000C3CC1838CCF80E25
:1040A0001C38000000FC3C38300000C3C31800007E
:1040B0002255DB1818183600003636003636180040
:1040C0001818001800181836360036003600361852
:1040D0003600003618000036181800FF00F00FFFF9
:1040E00000000000FC000000FC38381C0006387896
:1040F000003060180E1830003800000F7870000093
:104100000081FFFE387C1000FF3CC307663363DB91
:10411000E00E3C66DB63003C3C181830002418FFBE
:1041200000786C6C7CC66C60303066300000000C2F
:10413000C670CCCC3CC060CCCCCC3030300030CC65
:10414000C67866666C626266CC300C6660EEE66CC1
:1041500066CC66CCB4CCCCC6C6CCC6606018380081
:10416000300060000C006C00600000603000000057
:104170000000000030000000000000301830DC10AB
:10418000CCCC00C300003000C3000000C6003830B3
:1041900000006CCCCCE0CCE0CC1800186CCCCC1B74
:1041A00000001C1CF8006C6C000000C6C61833CC64
:1041B00088AA7718181836000036360036361800E8
:1041C0001818001800181836360036003600361851
:1041D0003600003618000036181800FF00F00FFFF8
:1041E0000078FCFECC006676306C6C30000C60CC45
:1041F000FC3030301B1830766C00000C6C1800005E
:1042000000A5DBFE7C383818E766990F663F7F3CD7
:10421000F83E7E66DB38007E7E180C60C0663CFF90
:1042200000786CFEC0CC38C060183C30000000182C
:10423000CE300C0C6CF8C00CCCCC303060FC180CC0
:10424000DECC66C0666868C0CC300C6C60FEF6C61A
:1042500066CC666030CCCCC66CCC8C6030186C0000
:10426000187860780C7860766C700C6630CCF878D2
:10427000DC76DC7C7CCCCCC6C6CCFC30183000387C
:10428000C000783C787878783C78787038706C002A
:10429000FC7FCC0000000000003CCC7E6478CC1891
:1042A0007870000000CC6C6C300000CCCC006666EE
:1042B0002255DB1818F83600F8F636FEF636F80008
:1042C0001818001800181F36373FF7FF37FFF7FFA1
:1042D00036FF00361F1F0036FF1800FF00F00FFFEB
:1042E00076CCCC6C607E66DC78C6C6187E7EC0CC90
:1042F00000FC18601B1800DC6C00000C6C303C00EB
:104300000081FFFEFEFE7C3CC342BD7D663063E75C
:10431000FEFE18667B6C00181818FEFEC0FF7E7E3D
:104320000030006C781876006018FFFC00FC00304C
:10433000DE303838CC0CF818787C0000C0000C183F
:10434000DECC7CC0667878C0FC300C7860FEDEC6BF
:104350007CCC7C3030CCCCD6387818601818C600AD
:10436000000C7CCC7CCCF0CC76300C6C30FECCCC11
:1043700066CC76C030CCCCD66CCC98E0001C006CFF
:10438000CCCCCC060C0C0CC066CCCC301830C6782B
:10439000600CFE787878CCCCCC66CCC0F0FCFA3CD3
:1043A0000C3078CCF8EC3E3860FCFCDEDB18CC330B
:1043B00088AAEE18181836001806360606361800B1
:1043C00018180018001818363030000030000000AF
:1043D0003600003618180036181800FF00F00FFFDE
:1043E000DCF8C06C30D86618CCFEC67CDBDBF8CCC1
:1043F000FC3030301818FC003818000C6C603C00A1
:1044000000BDC37C7CFEFE3CC342BDCC3C3063E7B8
:10441000F83E18661B6C7E7E187E0C60C066FF3C02
:10442000003000FE0C30DC0060183C300000006002
:10443000F630600CFE0CCC30CC0C00006000183064
:10444000DEFC66C0666868CECC30CC6C62D6CEC668
:1044500060DC6C1830CCCCFE383032600C180000B8
:10446000007C66C0CCFC60CC66300C7830FECCCCD6
:1044700066CC667830CCCCFE38CC3030183000C6F4
:1044800078CCFC3E7C7C7CC07EFCFC301830FECCC2
:10449000787FCCCCCCCCCCCCCC66CCC06030C61831
:1044A0007C30CCCCCCFC0000C0C00C333718666626
:1044B0002255DB18F8F8F6FEF8F636F6FEFEF8F8A8
:1044C0001FFFFF1FFFFF1F373F37FFF737FFF7FFC4
:1044D000FFFFFF3F1F1F3FFFFFF81FFFFFF00F0011
:1044E000C8CCC06C60D86618CCC66CCCDBDBC0CC4A
:1044F0000030601818180076001818EC6C783C0032
:104500000099E73838D67C18E76699CC1870673C74
:10451000E00E7E001B387E3C183C1830FE24FF184D
:104520000000006CF866CC0030306630300030C0DF
:10453000E630CCCC0CCCCC30CC18303030FC300059
:10454000C0CC66666C626066CC30CC6666C6C66CF3
:10455000607866CC30CC78EE6C306660061800006F
:1045600000CC66CCCCC0607C6630CC6C30D6CCCC79
:104570007C7C600C34CC78FE6C7C6430183000C6D7
:1045800018CCC066CCCCCC7860C0C0301830C6FC2B
:1045900060CCCCCCCCCCCCCC7C3CCC7EE6FCCF185C
:1045A000CC30CCCCCCDC7E7CCCC00C666F1833CC51
:1045B00088AA7718181836361836363600000018CC
:1045C000000018180018183600360036360036007D
:1045D0000018360000183636180018FFFFF00F00DC
:1045E000DCF8C06CCCD87C18786C6CCC7E7E60CC4F
:1045F000FC00000018D830DC0000006C00003C001B
:104600000081FF1010101000FF3CC3CC7EF0E6DBF1
:1046100080023C661BCC7E181818000000000000C9
:104620000030006C30C6760018600000300030802A
:104630007CFCFC781E787830787030301800603060
:1046400078CCFC3CF8FEF03ECC7878E6FEC6C63866
:10465000F01CE67878FC30C6C678FE780278000058
:104660000076DC787678F00CE678CCE678C6CC7804
:10467000600CF0F81876306CC60CFC1C18E000FEDC
:104680000C7E783F7E7E7E0C3C7878783C78C6CC79
:10469000FC7FCE7878787E7E0C187818FC30C6D8EF
:1046A0007E78787ECCCC0000780000CCCF1800005B
:1046B0002255DB1818183636183636360000001822
:1046C000000018180018183600360036360036007C
:1046D0000018360000183636180018FFFFF00F00DB
:1046E00076C0C06CFC7060183038EE78006038CC52
:1046F00000FCFCFC18D830000000003C000000006A
:10470000007E7E0000383800FF00FF7818E0C018F7
:1047100000001800007800FF00000000000000000A
:104720000000000000000000000000006000000029
:104730000000000000000000000000600000000019
:104740000000000000000000000000000000000069
:10475000000000000000000000000000000000FF5A
:1047600000000000000000F80000780000000000D9
:10477000F01E00000000000000F800000000000033
:104780007800000000000038000000000000000079
:104790000000000000000000F80000180030C770A2
:1047A00000000000000000000000000F03000000F7
:1047B00088AAEE1818183636183636360000001853
:1047C000000018180018183600360036360036007B
:1047D0000018360000183636180018FFFFF00F00DA
:1047E00000C000000000C000FC00000000C000008D
:1047F00000000000187000000000001C0000000015
:10500000003F3F3C030F0300FF00FF000F0F3F0373
:10501000C000033C3F0F000303030000000000003A
:10502000000F3C3C0F000F3C033C00000000000060
:105030003F0F3F3F03FF0FFF3F3F000003003C3F98
:105040003F0FFF0FFFFFFF0FF03F03FCFFF0F00FDC
:10505000FF3FFF3FFFF0F0F0F0F0FF3FF03F0300B5
:105060000F00FC0003000F00FC0F00FC3F000000DD
:1050700000000000030000000000000303FC3F00EC
:105080003F00033FF0FC0F003FF0FCF03FFCF00F4F
:1050900003000F3F00003F0000F0F0030FF0FF009F
:1050A000030F000000FF0F0F0F0000F0F0030000DF
:1050B0000C33F30303030F00000F0F000F0F030067
:1050C000030300030003030F0F000F000F000F0383
:1050D0000F00000F0300000F030300FF00FF00FF9D
:1050E00000000000FF000000FF0F0F0300000F3F53
:1050F000000F3C0300030F000F0000003F3F0000C3
:1051000000C0FFFF0F3F0300FF0FF0003C0F3CF318
:10511000FC000F3CF33C000F0F03030F000C03FFD8
:10512000003F3C3C3FF03C3C0F0F3C0F00000000B8
:10513000F03FF0F00FF03CF0F0F00F0F0F000FF029
:10514000F03F3C3C3C3C3C3CF00F003C3CFCFC3C1D
:105150003CF03CF0CFF0F0F0F0F0F03C3C030F00FE
:105160000F003C0000003C003C00003C0F00000031
:10517000000000000F0000000000000F030FF30309
:10518000F0F000F000000F00F0000000F0000F0F42
:1051900000003CF0F0FCF0FCF00300033CF0F003F6
:1051A00000000303FF003C3C000000F0F0030FF0A0
:1051B000C0CC3F0303030F00000F0F000F0F0300CD
:1051C000030300030003030F0F000F000F000F0382
:1051D0000F00000F0300000F030300FF00FF00FF9C
:1051E000003FFFFFF0003C3F0F3C3C0F00003CF055
:1051F000FF0F0F0F03030F3F3C0000003C030000B4
:1052000000CCF3FF3F0F0F03FC3CC3003C0F3F0FEC
:10521000FF0F3F3CF30F003F3F03003CF03C0FFF0C
:10522000003F3CFFF0F00FF03C030F0F00000003C5
:10523000F00F00003CFFF000F0F00F0F3CFF030008
:10524000F3F03CF03C3C3CF0F00F003C3CFFFFF046
:105250003CF03C3C0FF0F0F03CF0C03C0F033C0055
:10526000033F3C3F003F3C3F3C3F003C0FF0FF3FD3
:10527000F33FF33F3FF0F0F0F0F0FF0F030F000FAC
:10528000F0003F0F3F3F3F3F0F3F3F3F0F3F3C008E
:10529000FF3FF00000000000000FF03F3C3FF00334
:1052A0003F3F000000F03C3C0F0000F0F0003C3CB1
:1052B0000C33F30303FF0F00FFFF0FFFFF0FFF008F
:1052C000030300030003030F0F0FFFFF0FFFFFFF98
:1052D0000FFF000F0303000FFF0300FF00FF00FF9D
:1052E0003FF0F03C3C3F3CF33FF0F0033F3FF0F039
:1052F00000FF033C030300F33C0000003C0F0F00E1
:1053000000C0FFFFFFFF3F0FF030CF3F3C0F3CFCE2
:10531000FFFF033C3F3C00030303FFFFF0FF3F3F61
:10532000000F003C3F033F003C03FFFF00FF000F66
:10533000F30F0F0FF000FF033F3F0000F0000003EA
:10534000F3F03FF03C3F3FF0FF0F003F3CFFF3F036
:105350003FF03F0F0FF0F0F30F3F033C0303F0006B
:1053600000003FF03FF0FFF03F0F003C0FFFF0F078
:105370003CF03FF00FF0F0F33CF0C3FC0003003CC6
:10538000F0F0F000000000F03CF0F00F030FF03FF1
:105390003C00FF3F3F3FF0F0F03CF0F0FFFFFF0F1D
:1053A000000F3FF0FFFC0F0F3CFFFFF3F303F00F84
:1053B000C0CCFC0303030F0003000F00000F030029
:1053C000030300030003030F0F0F00000F00000092
:1053D0000F00000F0303000F030300FF00FF00FF97
:1053E000F3FFF03C0FF33C03F0FFF03FF3F3FFF06B
:1053F000FF0F0F0F0303FF000F0300003C3C0F00E3
:1054000000CFF03F3FFFFF0FF030CFF00F0F3CFC1D
:10541000FF0F033C033C3F3F033F003CF03CFF0FCA
:10542000000F00FF000FF3003C030F0F0000003CD3
:10543000FF0F3C00FF00F00FF00000003C00030FE6
:10544000F3FF3CF03C3C3CF0F00FF03C3CF3F0F060
:105450003CF33C030FF0F0FF0F0F0F3C0003000084
:10546000003F3CF0F0FF3CF03C0F003F0FFFF0F03E
:105470003CF03C3F0FF0F0FF0FF00F0F030F00F078
:105480003FF0FF0F3F3F3FF03FFFFF0F030FFFF0E5
:105490003F3FF0F0F0F0F0F0F03CF0F03C0FF003A4
:1054A0003F0FF0F0F0FF0000F0F0000F0F033C3C66
:1054B0000C33F303FFFFFFFFFFFF0FFFFFFFFFFFB3
:1054C00003FFFF03FFFF030F0F0FFFFF0FFFFFFFA0
:1054D000FFFFFF0F03030FFFFFFF03FFFFFF0000AE
:1054E000F0F0F03C3CF33C03F0F03CF0F3F3F0F070
:1054F000000F3C030303003F000303FC3C3F0F008D
:1055000000C3FC0F0FF33F03FC3CC3F0033F3C0F11
:10551000FC003F00030F3F0F030F030FFF0CFF03BF
:105520000000003CFF3CF0000F0F3C0F0F000FF09D
:10553000FC0FF0F000F0F00FF0030F0F0FFF0F0063
:10554000F0F03C3C3C3C3C3CF00FF03C3CF0F03C90
:105550003C3F3CF00FF03FFC3C0F3C3C00030000A4
:1055600000F03CF0F0F03C3F3C0FF03C0FF3F0F06B
:105570003F3F3C000FF03FFF3C3F3C0F030F00F06C
:1055800003F0F03CF0F0F03F3CF0F00F030FF0FFC1
:105590003CF0F0F0F0F0F0F03F0FF03FFCFFF003D4
:1055A000F00FF0F0F0F33F3FF0F0003C3C030FF061
:1055B000C0CC3F0303030F0F030F0F0F00000003C6
:1055C000000003030003030F000F000F0F000F0084
:1055D00000030F0000030F0F030003FFFFFF000095
:1055E000F3FFF03CF0F33F033F3C3CF03F3F3CF027
:1055F000FF00000003F30FF30000003C00000F0069
:1056000000C0FF0303030300FF0FF0F03FFFFCF3B4
:10561000C0000F3C03F03F03030300000000000044
:10562000000F003C0FF03F00033C00000F000FC0D4
:105630003FFFFF3F033F3F0F3F3F0F0F03003C0F74
:105640003FF0FF0FFFFFFF0FF03F3FFCFFF0F00FB9
:10565000FF03FC3F3FFF0FF0F03FFF3F003F000024
:10566000003FF33F3F3FFF00FC3FF0FC3FF0F03FC7
:105670003C00FFFF033F0F3CF000FF0303FC00FF73
:10568000003F3F0F3F3F3F000F3F3F3F0F3FF0F0D6
:10569000FF3FF03F3F3F3F3F00033F03FF0FF0F36B
:1056A0003F3F3F3FF0F000003F0000F0F0030000FC
:1056B0000C33F30303030F0F030F0F0F000000035E
:1056C000000003030003030F000F000F0F000F0083
:1056D00000030F0000030F0F030003FFFFFF000094
:1056E0003FF0F03CFF3F3C030F0FFC3F003C0FF04E
:1056F00000FFFFFF03F30F000000000F0000000099
:10570000003F3F00000F0F00FF00FF3F03FCF003CE
:1057100000000300003F00FF000000000000000048
:105720000000000000000000000000003C0000003D
:1057300000000000000000000000003C000000002D
:105740000000000000000000000000000000000059
:10575000000000000000000000000000000000FF4A
:1057600000000000000000FF00003F0000000000FB
:10577000FF0300000000000000FF00000000000028
:105780003F0000000000000F0000000000000000CB
:105790000000000000000000FF000003000FF03FC9
:1057A00000000000000000000000000000000000F9
:1057B000C0CCFC0303030F0F030F0F0F0000000307
:1057C000000003030003030F000F000F0F000F0082
:1057D00000030F0000030F0F030003FFFFFF000093
:1057E00000F000000000F000FF00000000F00000EA
:1057F00000000000033F0000000000030000000064
:1058000000FCFCF000C00000FF00FFFFF0FFFFC045
:10581000000CC03CFFFC00C0C0C000000000000045
:105820000000F0F00000C000C00000000000003CDC
:10583000F000C0C0F0F0C0F0C0C00000C00000C068
:10584000F000F0F0C0FCFCF0F0C0FC3C003C3CC0C0
:10585000F0C0F0C0F0F0F03C3CF0FCC000C0000034
:1058600000000000F000C0000000F0000000000098
:105870000000000000000000000000F0C0003C003C
:10588000C000F0FCF0000000FCF000F0F0003C0074
:10589000F000FCC00000C000000FF0C0C0F0C0FC71
:1058A000F0C0000000F0F0C00000000F0FC00000CA
:1058B0000C33CFC0C0C03C00003C3C003C3CC000AE
:1058C000C0C000C000C0C03C3C003C003C003CC02C
:1058D0003C00003CC000003CC0C000FF0000FFFFD7
:1058E00000000000F0000000F0C0C0F0003CC0C0AC
:1058F000000000C0FCC00000C00000FFC0000000AD
:105900000003FFFCC0F00000FFF00F3F3C0F0FCF83
:1059100000FCF03CCF0F00F0F0C0C0000030C0FF32
:1059200000C0F0F0F03CF00000003C00000000F08F
:105930003C00F0F0F00000F0F0F00000000000F09B
:105940003CC03C3CF00C0C3CF000F03C00FC3CF05B
:105950003CF03CF030F0F03C3CF03C0000C0C000BB
:1059600000000000F000F000000000000000000057
:10597000000000000000000000000000C000F00077
:10598000F0F0000F000000000F0000003C00C0001D
:105990000000F0F0F000F000F0C000C0F0F0F0CF38
:1059A0000000F0F0C000F0F00000003C3CC00FF040
:1059B000C0CC3FC0C0C03C00003C3C003C3CC000F0
:1059C000C0C000C000C0C03C3C003C003C003CC02B
:1059D0003C00003CC000003CC0C000FF0000FFFFD6
:1059E00000C0F0FCF0003C3C00F0F00000F000F0E3
:1059F000F0000000CFC0003CF00000F0F0C000005C
:105A00000033CFFCF0C0C0C03F3CC3FF3CFFFFF001
:105A1000C0FCFC3CCFC000FCFCC0F000003CF0FF30
:105A200000C0F0FC00F0C00000C0F000000000C0AA
:105A3000FC00F0F0F0C000F0F0F0000000F0C0F06A
:105A4000FCF03C003CC0C000F000F0F000FC3C3C2E
:105A50003CF03C0000F0F03CF0F0F00000C0F00042
:105A6000C0C000C0F0C0003CF000F03C00F0C0C07E
:105A7000F03CF0F0F0F0F03C3CF0F000C00000C072
:105A80000000C0F0C0C0C0C0F0C0C000C000F00046
:105A9000F0FFF0000000000000F0F0FC30C0F0C0AB
:105AA000C000000000F0F0F0000000F0F0003C3C0E
:105AB0000C33CFC0C0C03C00C03C3CFC3C3CC000F0
:105AC000C0C000C000C0FF3C3FFF3FFF3FFF3FFFA3
:105AD0003CFF003CFFFF003CFFC000FF0000FFFF59
:105AE0003CF0F0F000FC3CF0C03C3CC0FCFC00F0A2
:105AF00000F0C000CFC000F0F00000F0F000F000B7
:105B00000003FFFCFCFCF0F00F0CF3F33C000F3F34
:105B1000FCFCC03CCFF000C0C0C0FCFC00FFFCFCA3
:105B2000000000F0C0C03C0000C0FFF000F000002A
:105B3000FC00C0C0F0F0C0C0C0F000000000F0C029
:105B4000FCF0F0003CC0C000F000F0C000FCFC3CE9
:105B5000F0F0F00000F0F03CC0C0C000C0C03C005D
:105B600000F0F0F0F0F000F03C00F0F000FCF0F09D
:105B70003CF03C0000F0F03CF0F0C00000F000F021
:105B8000F0F0F03CF0F0F0003CF0F000C0003CC061
:105B900000F0FCC0C0C0F0F0F03CF00000F0CCF031
:105BA000F000C0F0C0F0FCC000F0F0FCCFC0F00F7F
:105BB000C0CCFCC0C0C03C00C03C3C3C3C3CC00035
:105BC000C0C000C000C0C03C0000000000000000D9
:105BD0003C00003CC0C0003CC0C000FF0000FFFF14
:105BE000F0C000F000C03CC0F0FC3CF0CFCFC0F0F3
:105BF000F0000000C0C0F000C0C000F0F000F000F5
:105C000000F30FF0F0FCFCF00F0CF3F0F0000F3F8E
:105C1000C0FCC03CCFF0FCFCC0FCF000003CFFF03E
:105C2000000000FCF000F00000C0F00000000000E8
:105C30003C0000F0FCF0F000F0F000000000C000BC
:105C4000FCF03C003CC0C0FCF000F0F00C3CFC3C24
:105C500000F0F0C000F0F0FCC0000C00F0C000004C
:105C600000F03C00F0F000F03C00F0C000FCF0F070
:105C70003CF03CC000F0F0FCC0F00000C000003C74
:105C8000C0F0F0FCF0F0F000FCF0F000C000FCF020
:105C9000C0FFF0F0F0F0F0F0F03CF00000003CC08D
:105CA000F000F0F0F0F000000000F00F3FC03C3CCE
:105CB0000C33CFC0C0C03CFCC03C3C3CFCFCC0C072
:105CC000FFFFFFFFFFFFFF3FFF3FFF3F3FFF3FFFA4
:105CD000FFFFFFFFFFFFFFFFFFC0FFFFFF00FF0011
:105CE000C0F000F000C03CC0F03CF0F0CFCF00F0BE
:105CF000000000C0C0C0003C00C0C0F0F0C0F00018
:105D000000C33FC0C03CF0C03F3CC3F0C0003FF008
:105D100000FCFC00CFC0FCF0C0F0C000FC30FFC0B5
:105D2000000000F0C03CF00000003C00000000005B
:105D30003C00F0F0F0F0F000F0C0000000F00000D7
:105D400000F03C3CF00C003CF000F03C3C3C3CF0F3
:105D500000C03CF000F0C0FCF0003C003CC0000083
:105D600000F03CF0F00000F03C00F0F0003CF0F0FF
:105D7000F0F000F030F0C0FCF0F03000C000003C6B
:105D8000C0F0003CF0F0F0C000000000C0003CF0AB
:105D900000F0F0F0F0F0F0F0F0F0F0FC3CF0FFC0BC
:105DA000F000F0F0F0F0FCF0F000F03CFFC00FF07D
:105DB000C0CC3FC0C0C03C3CC03C3C3C000000C02C
:105DC0000000C0C000C0C03C003C003C3C003C00A7
:105DD00000C03C0000C03C3CC000C0FFFF00FF0012
:105DE000F0C000F0F0C0F0C0C0F0F0F0FCFC00F03B
:105DF000F0000000C0C000F0000000F00000F00063
:105E00000003FF0000000000FFF00FF0FC003CCF9B
:105E1000000CF03CCFF0FCC0C0C00000000000004F
:105E2000000000F0003C3C00C0000000000000004A
:105E3000F0F0F0C0FCC0C000C0000000C0000000D6
:105E4000C0F0F0F0C0FC00FCF0C0C03CFC3C3CC02A
:105E500000F03CC0C0F0003C3CC0FCC00CC00000E6
:105E6000003CF0C03CC000F03CC0F03CC03CF0C086
:105E700000F000C0C03C00F03CF0F0F0C00000FCBE
:105E8000F0FCC0FFFCFCFCF0F0C0C0C0F0C03CF077
:105E9000F0FFFCC0C0C0FCFCF0C0C0C0F0003CC0C3
:105EA000FCC0C0FCF0F00000C00000F0FFC000002B
:105EB0000C33CFC0C0C03C3CC03C3C3C000000C0E8
:105EC0000000C0C000C0C03C003C003C3C003C00A6
:105ED00000C03C0000C03C3CC000C0FFFF00FF0011
:105EE0003C0000F0F00000C000C0FCC00000C0F0AA
:105EF00000F0F0F0C0C00000000000F00000000062
:105F000000FCFC0000C0C000FF00FFC0C00000C0DB
:105F10000000C00000C000FF000000000000000002
:105F20000000000000000000000000000000000071
:105F30000000000000000000000000000000000061
:105F40000000000000000000000000000000000051
:105F5000000000000000000000000000000000FF42
:105F600000000000000000C00000C00000000000B1
:105F700000FC00000000000000C000000000000065
:105F8000C0000000000000C0000000000000000091
:105F90000000000000000000C00000C000003F0042
:105FA0000000000000000000000000FF0F000000E3
:105FB000C0CCFCC0C0C03C3CC03C3C3C000000C06D
:105FC0000000C0C000C0C03C003C003C3C003C00A5
:105FD00000C03C0000C03C3CC000C0FFFF00FF0010
:105FE0000000000000000000F000000000000000C1
:105FF00000000000C0000000000000F000000000F1
:1028000000F00FFF00F00FFF00F00FFF00F00FFFD0
:1028100000F00FFF00F00FFF00F00FFF00F00FFFC0
:1028200000F00FFF00F00FFF00F00FFF00F00FFFB0
:1028300000F00FFF00F00FFF00F00FFF00F00FFFA0
:1028400000F00FFF00F00FFF00F00FFF00F00FFF90
:1028500000F00FFF00F00FFF00F00FFF00F00FFF80
:1028600000F00FFF00F00FFF00F00FFF00F00FFF70
:1028700000F00FFF00F00FFF00F00FFF00F00FFF60
:1028800000F00FFF00F00FFF00F00FFF00F00FFF50
:1028900000F00FFF00F00FFF00F00FFF00F00FFF40
:1028A00000F00FFF00F00FFF00F00FFF00F00FFF30
:1028B00000F00FFF00F00FFF00F00FFF00F00FFF20
:1028C00000F00FFF00F00FFF00F00FFF00F00FFF10
:1028D00000F00FFF00F00FFF00F00FFF00F00FFF00
:1028E00000F00FFF00F00FFF00F00FFF00F00FFFF0
:1028F00000F00FFF00F00FFF00F00FFF00F00FFFE0
:1029000000F00FFF00F00FFF00F00FFF00F00FFFCF
:1029100000F00FFF00F00FFF00F00FFF00F00FFFBF
:1029200000F00FFF00F00FFF00F00FFF00F00FFFAF
:1029300000F00FFF00F00FFF00F00FFF00F00FFF9F
:1029400000F00FFF00F00FFF00F00FFF00F00FFF8F
:1029500000F00FFF00F00FFF00F00FFF00F00FFF7F
:1029600000F00FFF00F00FFF00F00FFF00F00FFF6F
:1029700000F00FFF00F00FFF00F00FFF00F00FFF5F
:1029800000F00FFF00F00FFF00F00FFF00F00FFF4F
:1029900000F00FFF00F00FFF00F00FFF00F00FFF3F
:1029A00000F00FFF00F00FFF00F00FFF00F00FFF2F
:1029B00000F00FFF00F00FFF00F00FFF00F00FFF1F
:1029C00000F00FFF00F00FFF00F00FFF00F00FFF0F
:1029D00000F00FFF00F00FFF00F00FFF00F00FFFFF
:1029E00000F00FFF00F00FFF00F00FFF00F00FFFEF
:1029F00000F00FFF00F00FFF00F00FFF00F00FFFDF
:102A000000000000F0F0F0F00F0F0F0FFFFFFFFFCE
:102A100000000000F0F0F0F00F0F0F0FFFFFFFFFBE
:102A200000000000F0F0F0F00F0F0F0FFFFFFFFFAE
:102A300000000000F0F0F0F00F0F0F0FFFFFFFFF9E
:102A400000000000F0F0F0F00F0F0F0FFFFFFFFF8E
:102A500000000000F0F0F0F00F0F0F0FFFFFFFFF7E
:102A600000000000F0F0F0F00F0F0F0FFFFFFFFF6E
:102A700000000000F0F0F0F00F0F0F0FFFFFFFFF5E
:102A800000000000F0F0F0F00F0F0F0FFFFFFFFF4E
:102A900000000000F0F0F0F00F0F0F0FFFFFFFFF3E
:102AA00000000000F0F0F0F00F0F0F0FFFFFFFFF2E
:102AB00000000000F0F0F0F00F0F0F0FFFFFFFFF1E
:102AC00000000000F0F0F0F00F0F0F0FFFFFFFFF0E
:102AD00000000000F0F0F0F00F0F0F0FFFFFFFFFFE
:102AE00000000000F0F0F0F00F0F0F0FFFFFFFFFEE
:102AF00000000000F0F0F0F00F0F0F0FFFFFFFFFDE
:102B000000000000F0F0F0F00F0F0F0FFFFFFFFFCD
:102B100000000000F0F0F0F00F0F0F0FFFFFFFFFBD
:102B200000000000F0F0F0F00F0F0F0FFFFFFFFFAD
:102B300000000000F0F0F0F00F0F0F0FFFFFFFFF9D
:102B400000000000F0F0F0F00F0F0F0FFFFFFFFF8D
:102B500000000000F0F0F0F00F0F0F0FFFFFFFFF7D
:102B600000000000F0F0F0F00F0F0F0FFFFFFFFF6D
:102B700000000000F0F0F0F00F0F0F0FFFFFFFFF5D
:102B800000000000F0F0F0F00F0F0F0FFFFFFFFF4D
:102B900000000000F0F0F0F00F0F0F0FFFFFFFFF3D
:102BA00000000000F0F0F0F00F0F0F0FFFFFFFFF2D
:102BB00000000000F0F0F0F00F0F0F0FFFFFFFFF1D
:102BC00000000000F0F0F0F00F0F0F0FFFFFFFFF0D
:102BD00000000000F0F0F0F00F0F0F0FFFFFFFFFFD
:102BE00000000000F0F0F0F00F0F0F0FFFFFFFFFED
:102BF00000000000F0F0F0F00F0F0F0FFFFFFFFFDD
:102C000000000000000000000000000000000000C4
:102C1000F0F0F0F0F0F0F0F0F0F0F0F0F0F0F0F0B4
:102C20000F0F0F0F0F0F0F0F0F0F0F0F0F0F0F0FB4
:102C3000FFFFFFFFFFFFFFFFFFFFFFFFFFFFFFFFA4
:00000001FF
